:020000040800F2
:1000000068070020890100089D2900086125000873
:1000100099290008FD020008B1290008000000002D
:10002000000000000000000000000000A5290008FA
:100030000103000800000000A1290008A929000808
:10004000A3010008A3010008A3010008A301000800
:10005000A3010008A3010008A3010008A3010008F0
:10006000A3010008A3010008A3010008A3010008E0
:10007000A3010008A3010008A3010008A3010008D0
:10008000A3010008A3010008A3010008A3010008C0
:10009000A3010008A3010008A3010008A3010008B0
:1000A000A3010008A3010008A3010008A3010008A0
:1000B000A3010008A3010008A3010008A301000890
:1000C000A3010008A3010008A3010008A301000880
:1000D000A3010008A3010008A3010008A301000870
:1000E000A3010008A3010008A301000800F002F822
:1000F00000F03AF80AA090E8000C82448344AAF188
:100100000107DA4501D100F02FF8AFF2090EBAE885
:100110000F0013F0010F18BFFB1A43F0010318473B
:10012000F430000014310000103A24BF78C878C1C0
:10013000FAD8520724BF30C830C144BF04680C60ED
:10014000704700000023002400250026103A28BF35
:1001500078C1FBD8520728BF30C148BF0B60704739
:100160001FB51FBD10B510BD00F031F81146FFF7E7
:10017000F7FF02F0ADFC00F04FF803B4FFF7F2FF19
:1001800003BC00F057F800000948804709480047C1
:10019000FEE7FEE7FEE7FEE7FEE7FEE7FEE7FEE737
:1001A000FEE7FEE704480549054A064B7047000094
:1001B000AD290008ED000008680100206807002054
:1001C0006803002068030020704770477047754639
:1001D00000F02CF8AE4605006946534620F00700B3
:1001E000854618B020B5FFF7DDFFBDE820404FF091
:1001F00000064FF000074FF000084FF0000BAC4630
:10020000ACE8C009ACE8C009ACE8C009ACE8C0097A
:1002100021F007018D46704710B50446AFF300800A
:100220002046BDE81040FFF7A8BF00000048704717
:100230002000002001491820ABBEFEE72600020086
:1002400070470000B0B582B00446002001902168DC
:100250008A68D2074FD1886840F00100886040F278
:100260001800C2F2000000684DF68361C4F21B3131
:10027000A0FB0101880C01900198A0B10198013800
:100280000190019878B1019801380190019850B11E
:10029000019801380190019828B101980138019026
:1002A00001980028EAD100F0DFFC21688968C907BD
:1002B0001CD1054603E000BF8068C0071AD100F0DA
:1002C000D3FC411B20680329F6D38168C907F3D109
:1002D000A06A40F01000A062E06A40F00100E06215
:1002E000002084F82400012002B0B0BD002002B03C
:1002F000B0BD00BF002002B0B0BD0000FEE70000AE
:100300007047000010B581B00022009290F82420C0
:10031000012A03D10221084601B010BD4B68012219
:10032000062B80F8242017D8D0F800C003EB8303F5
:100330005A1F1F23DCF834E003FA02F40B682EEA9C
:10034000040403FA02F22243CCF83420092B03EB15
:10035000430219D936E000BFD0F800C00C2B03EBE4
:1003600083021DD8233A1F23DCF830E003FA02F49D
:100370000B682EEA040403FA02F22243CCF8302080
:10038000092B03EB43021DD8DCF8103007248968E1
:100390009440A34391401943CCF81010002130E061
:1003A000413A1F23DCF82CE003FA02F40B682EEA32
:1003B000040403FA02F22243CCF82C20092B03EBAD
:1003C0004302E1D9DCF80CE01E3A07248968944026
:1003D0002EEA0404914023F001022143102ACCF8B4
:1003E0000C100DD142F20841C4F20101A1F1080242
:1003F00094450DD0816A41F020018162012100E025
:100400000021002280F82420084601B010BD00BF62
:100410000A68120230D40A68102B42F400020A6003
:100420002CD140F21801C2F2000109684DF6836236
:10043000C4F21B32A1FB0212910C01EB81014900B5
:1004400000910099E1B10099013900910099C9B179
:100450000099013900910099B1B1009901390091D9
:10046000009999B1009901390091009900294FF044
:100470000001E8D1C5E700BF0021C2E70021C0E7C5
:100480000021BEE70021BCE70021BAE70021B8E760
:100490000068C06C70470000B0B5002800F0A8806C
:1004A0000446806A20B121688868C0070BD114E037
:1004B0000020E06284F82400204600F09BF82168C8
:1004C0008868C00709D0886820F00100886000F0C3
:1004D000CBFB21688A68D20726D1A06AC0063AD42D
:1004E000A06A41F2021290430230A062E069D4E9AE
:1004F000013240EA030C531EB3FA83F35D0913463D
:10050000B2F5807F18BF2B02207D257B01284CEAA5
:10051000450030D135B3A56A45F02005A562E56AEE
:1005200045F00105E56226E0054602E08868C0075F
:10053000D3D000F099FB401B21680328F6D38868CC
:10054000C007F3D0A06A40F01000A062E06A40F05B
:100550000100E062A06AA06A40F01000A0620120E1
:10056000B0BD00BFD4F818C04EF60005CFF6FF7539
:1005700005EB4C352B434D68B2F5807F25F469457A
:1005800043EA05034B608B684FF2FD75CFF6E175CA
:1005900003EA050343EA00038B6001D0012A07D177
:1005A00022690023CFF6F07303EB025201E000BF93
:1005B0000022CB6A23F470031A43CA62896840F6AA
:1005C000FE62CFF61F721140814207D10020E06227
:1005D000A16A012262F30101A162B0BDA06A40F0EC
:1005E000100020F00200A062E06A40F00100E0622A
:1005F0000120B0BD80B586B0014640F60000C4F2CF
:100600000100096800F5E05291424FF00001CDE988
:10061000041101D006B080BD41F21801C4F20201FC
:100620000A6842F400720A600A6802F400720192D9
:10063000019A0A6842F004020A60096801F00401A4
:1006400001910199202102910321039102A900F057
:10065000F1F906B080BD0000F0B581B000270D466D
:100660000446009700F000FB21688A68D20543D455
:1006700006464868C00503D4C86A10F4700F45D018
:1006800040F21800C2F200000768022000F06EFD80
:10069000216844F624130A69B7FBF0F0C2F29243D2
:1006A0001A4206D1CA6844F62413C0F292031A42D1
:1006B0005ED00A6942F29243C1F249231A4207D13D
:1006C000CA6842F29243C0F249031A4200F0C08065
:1006D0000A6949F24923C0F224031A424FF0FC028E
:1006E00057D1CF681F4208BF5422009B02FB00F77E
:1006F000BB4253D3C3E000BFA06A40F02000A06219
:1007000084F82470012001B0F0BD00BF08688007A4
:1007100000F1B580681C00F0A880FDB9086880076A
:1007200072D50868800700F1AA80086880076BD539
:100730000868800700F1A3800868800764D508680E
:10074000800700F19C80086880075DD508688007F5
:10075000E4D594E00868800700F1918000F084FA05
:10076000801B2168A842F5D908688007F2D44BE0C5
:100770000A6942F29243C1F249231A424FF0290218
:1007800007D1CB6842F29247C0F249073B4208BF0B
:100790001422009B02FB00F7BB4270D2681C4FD0B2
:1007A00055BB0098B8422FD30098013000900098B4
:1007B000B84264D20098B84226D300980130009025
:1007C0000098B8425BD20098B8421DD3009801301F
:1007D00000900098B84252D20098B84214D30098C2
:1007E000013000900098B842DBD348E00098013017
:1007F00000900098B84233D200F036FA801BA8422D
:10080000F4D90098B842F1D2A06A40F00400A06286
:10081000002084F82400032001B0F0BD00980130CE
:1008200000900098B8422AD20098013000900098B9
:10083000B84224D20098013000900098B8421ED2ED
:100840000098013000900098B842E7D317E000BF4D
:100850005422009B02FB00F7BB429FD30FE000BF76
:1008600021680CE00868800709D40868800706D46E
:10087000086880075CBF08685FEA8070F2D56FF097
:1008800012000860A06A40F40070A062886800F45A
:100890006020B0F5602F01D1207B18B1002001B09D
:1008A000F0BD00BFA06A20F48070A062A06AC004FE
:1008B000F4D4A06A40F00100A062002001B0F0BDB5
:1008C00010B5044690F82400012804BF022010BD92
:1008D000012084F824002046FFF7B4FC20B1002159
:1008E00084F8241010BD00BF42F2044C2068A16AB5
:1008F000C4F2010C40F2013291430CF57F7201F514
:1009000080719042A16233D0A16A21F48011A1626A
:100910004168490504D5A16A012363F30D31A16241
:10092000A16A0023C9044FF0000144BFE16A21F02D
:100930000601E1626FF0020184F8243001608168F1
:1009400001F46021B1F5602F06D190420AD1DCF8A4
:10095000001011F4702F05D0816841F4801181607E
:10096000002010BD816841F4A0018160002010BD0D
:10097000DCF8001011F4702FC6D0A16A41F4801188
:10098000A162DCF800104905C5D4C9E7B0B504463A
:1009900090F82400012804BF0220B0BD0121206886
:1009A00084F824108168C90709D0816821F0010109
:1009B000816000F059F921688968C9070ED1214684
:1009C00051F8280F41F2011220EA0202002042F001
:1009D00001020A60002184F82410B0BD054602E03F
:1009E0008068C007EBD000F03FF9411B2068032965
:1009F000F6D38168C907F3D0A06A214640F0100001
:100A0000A06251F82C2F0120E1E70000B0B50446A8
:100A100000F02AF9054640F21000C2F2000000780A
:100A2000611C18BF044400BF00F01EF9401BA04227
:100A3000FAD3B0BD2DE9F04F82B00E68002E00F061
:100A4000038141F20042C4F20102042340F2004E4D
:100A5000904208BF03234FF6FF7CC4F2010E0093BF
:100A600000240123C1F2100C4FF0000A4FF00009DE
:100A700049E000BF012704F00C030F229A402BEA43
:100A8000020207FA03F34FEA9A051A4346F82520B3
:100A9000D1F804B040F20C455FEACB22DEF8082022
:100AA00054BF22EA080242EA0802C4F20105CEF865
:100AB00008202A685FEA8B2354BF22EA080242EA30
:100AC00008022A605FEA8B33DEF8042054BF22EA72
:100AD000080242EA08025FEACB33CEF80420DEF8CF
:100AE00000204FF0010354BF22EA080242EA080244
:100AF000CEF800200E680AF1010A36FA0AF204F173
:100B0000040400F0A18003FA0AF816EA080FF1D0F5
:100B10004E68664512DC122E56D8DFE806F0350B1B
:100B20004549555555555555555555555555554D99
:100B3000510000BFD1F80C9046E000BF4FF6FF72A5
:100B4000C1F2210296420FDC0022C1F2110296424C
:100B50001AD00022C1F21202964215D00022C1F230
:100B60002102964210D02FE00022C1F222029642CA
:100B70000AD00022C1F23102964205D00022C1F211
:100B80003202964220D100BF8A684AB1012A14BFBE
:100B9000C0F81480C0F810804FF0080914E000BFBE
:100BA0004FF0040910E000BFCA6802F108090BE029
:100BB0004FF0000908E000BFCA6802F1040903E031
:100BC000CA6802F10C0900BF22460646BAF1080FB6
:100BD00024BF203A043637680F25954027EA0505DB
:100BE00009FA02F22A433260CA79D2067FF582AF4F
:100BF00041F21803C4F202031A68AEF57E7642F0A1
:100C000001021A601A6802F001020192019A2AF0A8
:100C1000030256F802B040F60002C4F2010290420C
:100C200010D040F60042C4F2010290423FF422AFDD
:100C300041F20002C4F20102009F904208BF022765
:100C400019E700BF002716E702B0BDE8F08F0000EB
:100C50008068084018BF012070470000002A08BFC4
:100C6000090401617047000040F26410C2F2000004
:100C70000068704770B5B8B3044690F83D0028B9D5
:100C8000002084F83C00204600F09AF9242084F8E3
:100C90003D002068016821F001010160016841F414
:100CA00000410160016821F40041016000F03CFC5A
:100CB00048F28041C0F21E0140F60013D4F804E06F
:100CC00088424FF00001C0F23D0348F2A16C4FF0A2
:100CD000000238BF01219842C0F2010C38BF012246
:100CE000E64538BF0A460AB1012070BD4DF6836162
:100CF000C4F21B31A0FB01122168950C4B684FF424
:100D0000967623F03F0343EA9243754344F6D35665
:100D10004B60C1F262060B6AA5FB0656B50923F0CB
:100D20003F03E64538BF950C6A1C1A430A62CA693C
:100D300048F2A0664CF6FF73C0F20106B64522EAFF
:100D400003020BD801384FEA4E03B0FBF3F0013039
:100D50006FF31F30042898BF04201EE0A3680138F9
:100D600063B119230EFB03F3B0FBF3F001306FF313
:100D70001F3078B100F5804008E000BF0EEB4E0355
:100D8000B0FBF3F001306FF31F3028B100F50040E5
:100D900003E000BF012000E001201043C8610868A3
:100DA000D4E9072320F0C000104318430860886886
:100DB00048F2FF3204F10C0690434CCE1843104326
:100DC000A5698860C86820F0FF0030432843C860E8
:100DD000086840F00100086000202021206484F8A9
:100DE0003D10206384F83E0070BD00002DE9F04303
:100DF00083B01E46174689460446FFF735FF94F830
:100E00003D10202920D10546206800BF816989074F
:100E100016D5FFF729FF411B20681A29F6D38169EF
:100E20008907F3D500202021206384F83D1084F841
:100E30003E00216C41F02001216484F83C0003E075
:100E400094F83C10012903D1022003B0BDE8F083DF
:100E5000012184F83C100168C90703D1016841F001
:100E600001010160016840F2020821F400610160A3
:100E7000212184F83D10102184F83E1000212164C6
:100E800067626685618DC0F201082185A8F10211B3
:100E9000E162E16A0A9E11F5803F18BF01291DD168
:100EA000016841F48071016020464FF00111002279
:100EB0003346009501F0B6FB50B120680068C005CC
:100EC00044BF4FF400702064012003B0BDE8F083FC
:100ED0002069B0F5804F07D1FE2015E00829DFD04A
:100EE000216B1229DCD0DFE7062000EAD910216847
:100EF000F030086108F10601204632462B4601F029
:100F00007BFC0028E0D1FF20216800EA090008618D
:100F10002046414632462B4601F06EFC0028D3D1D4
:100F20000020029020684169029180690290029835
:100F300006E000BF204631462A4601F013FB18BBED
:100F4000208D68B3204631462A4601F0C5FCD8B949
:100F5000606A2168024612F8013B0B616262628D91
:100F6000013A6285228D531E23854F697F07E1D5A3
:100F70001B04DFD0437802300B616062608D013862
:100F80006085901E2085D5E7206C04289CD12068C0
:100F9000016841F400710160012003B0BDE8F083F5
:100FA0002068016841F400710160202084F83D0050
:100FB000002084F83E0084F83C0003B0BDE8F083D4
:100FC00010B586B045F200410068C4F2000100226D
:100FD0008842049202D006B010BD00BF41F218044E
:100FE000C4F20204206840F008002060206800F08D
:100FF000080001900198C020029012200390032065
:10100000059001F5384002A9FFF714FD606840F42F
:1010100000106060606800F400100190019806B054
:1010200010BD000040F2100040F26411C2F2000056
:10103000C2F2000100780A6810440860704700009E
:1010400080B542F20000C4F20200016841F01001D4
:101050000160032000F07AF80F2000F005F800F09E
:1010600027F8002080BD000070B540F21006C2F2E3
:10107000000640F218013278C2F200014FF47A7390
:101080000968B3FBF2F20446B1FBF2F1084600F046
:101090004DFC0F2C4FF0010508D838B94FF0FF3048
:1010A00021460022002500F025F87460284670BD16
:1010B00082B041F21800C4F202000168022241F03D
:1010C00001010160016801F001010191019941688C
:1010D00041F080514160406800F0805000900098DD
:1010E0000420C4F20100016862F31A61016002B0D9
:1010F0007047000010B54EF60C5CCEF2000CDCF828
:101100000030C3F3022E8EF00704042C28BF042401
:10111000BEF103034FF0FF3E0EFA04F438BF002384
:10112000A14399400EFA03F39A43114300F00F02D2
:1011300000F160430901043A03F564436244002866
:1011400048BF02F10C03197010BD00004EF60C519F
:10115000CEF200010A684FF6FF031A4060F30A223C
:1011600042F0806040F0FD700860704780B5012853
:1011700018D0022836D0102832D141F20401C4F22E
:1011800002010A6851F8040CC00129D5C2F383405A
:101190002DA3185CD2033DD440F60012C0F23D02EC
:1011A000504343E041F20400C4F20200C16940F23E
:1011B00002320A40B2F5817F04BF4FF4004080BD87
:1011C00001F44071B1F5407F1CD0B1F5007F07D12B
:1011D000006A49F64041800701EAE07080BD00BF27
:1011E000002080BD00F0B4F941F20401C4F2020114
:1011F00009680222C1F3813102EB4101B0FBF1F039
:1012000080BD00BF50F8040C4FF22441800301EA76
:10121000E07080BD0A6810A3C2F340429A5C41F2BC
:101220000023C0F27A03B3FBF2F25043096849028B
:1012300048BF80BD4AF6AB214000CAF6AA21A0FBF8
:101240000101480880BD00BF020304050607080924
:101250000A0B0C0D0E0F1010010200002DE9F041D9
:1012600082B00446007841F21C06C007C4F20206B0
:101270004AD0306810F0805808D1306840F0805073
:101280003060306800F080500190019847F200070C
:10129000C4F200073868C00512D4386840F4807082
:1012A0003860FFF7E1FC05463868C00508D4FFF751
:1012B000DBFC401B6428F7D9032002B0BDE8F081B5
:1012C000706810F4407012D0616801F44071884277
:1012D0000DD0706840F24042C4F24222012320F453
:1012E000407113600023C007136071602AD17068D9
:1012F000616820F440700843B8F1000F706003D1BA
:10130000306820F0805030602068810707D556F89B
:10131000181CA26821F44041114346F8181CC0066D
:1013200004D4002002B0BDE8F08100BF56F8180CCC
:10133000E16820F48000084346F8180C002002B051
:10134000BDE8F081FFF790FC054641F2883700BF09
:1013500070688007CBD4FFF787FC401BB8424FF082
:101360000300F5D9EBE700002DE9F04381B0002838
:1013700000F0858042F20008C4F202080446D8F862
:1013800000000D4600F0070088420CD2D8F800009B
:1013900020F007002843C8F80000D8F8000000F04B
:1013A0000700A8426BD1206841F204098107C4F20A
:1013B000020917D5410705D5D9F8001041F4E061BD
:1013C000C9F80010010705D5D9F8001041F46051A3
:1013D000C9F80010D9F80010A26821F0F0011143FB
:1013E000C9F80010C00741D1D8F8000000F007008C
:1013F000A8420CD9D8F8000020F007002843C8F80C
:101400000000D8F8000000F00700A84237D120689B
:10141000410707D5D9F80010E26821F4E0611143D3
:10142000C9F80010000708D5D9F80000216920F498
:10143000605040EAC100C9F80000D9F8002002F06D
:101440000C00082841F20020C0F27A0050D143F28B
:10145000F213C2F38341C0F60003595CD2033BD4BC
:1014600040F60010C0F23D00484341E060680228A9
:101470000AD001282AD159F8041C890308D4012074
:1014800001B0BDE8F08300BF59F8041C8901F6D50E
:10149000D9F8001021F003010843C9F80000FFF754
:1014A000E3FB064641F28837D9F80000616800F096
:1014B0000C00B0EB810F97D0FFF7D6FB801BB84232
:1014C000F2D9032001B0BDE8F08300BF59F8041C35
:1014D0008907D4D5DCE700BFD9F8002043F2F01328
:1014E000C2F34042C0F600039A5C4843B0FBF2F0FE
:1014F000D9F8001043F2D812C1F30311C0F600026C
:10150000515C40F2180220FA01F140F21400C2F2DC
:1015100000000068C2F200021160FFF7A5FD002084
:1015200001B0BDE8F083000040F2180041F2040170
:10153000C2F20000C4F202010068096843F2E81236
:10154000C1F30221C0F60002515CC84070470000A0
:1015500040F2180041F20401C2F20000C4F202019C
:101560000068096843F2E812C1F3C221C0F6000224
:10157000515CC840704700002DE9F04182B000285E
:1015800068D00446007841F20006C007C4F20206A3
:1015900025D0706800F00C0004281BD0706800F0A3
:1015A0000C00082802D17068C00313D460680028BA
:1015B00000F06881B0F5A02F00F07C81B0F5803F8D
:1015C00000F07C81306820F480303060306820F496
:1015D000802076E13068800301D56068D0B3207840
:1015E000800718D5706810F00C0F07D0706800F0F5
:1015F0000C0008286ED17068C0036BD43068800777
:1016000002D52069012825D13068616920F0F800F1
:1016100040EAC1003060207800071FD420784007DE
:1016200032D4E56995B1706800F00C00082840F0EC
:101630008F80012D0ED07068216A00F480328A42BA
:1016400008D1616A00F47010884203D1002002B012
:10165000BDE8F081012002B0BDE8F081A06900285A
:1016600062D00020C4F242200121C0F88014FFF7AC
:10167000FBFA0546706A800700F18C80FFF7F4FAE8
:10168000401B0228F6D92AE1F06910F0805808D1F1
:10169000F06940F08050F061F06900F080500090F7
:1016A000009847F20007C4F200073868C00529D443
:1016B000386840F480703860FFF7D6FA054600BFFE
:1016C0003868C0051ED4FFF7CFFA401B6428F7D94D
:1016D00005E100BF2069002840F20000C4F242206A
:1016E00000F0828001210160FFF7BEFA054600BFCD
:1016F000306880073FF588AFFFF7B6FA401B022835
:10170000F6D9ECE0E068002800F08080052800F0C1
:101710009780012800F09880306A20F00100306244
:10172000306A20F0040092E00020C4F24220002140
:10173000C0F88014FFF798FA054600BF706A80076A
:101740007FF56CAFFFF790FA401B0228F6D9C6E090
:101750000027C4F2422700203866FFF785FA022DE1
:1017600005460BD13068800140F1BE80FFF77CFA5E
:10177000401B02284FF00300F4D968E7306880016D
:101780007FF564AFFFF770FA401B02284FF00300AB
:10179000F4D95CE740F21800C2F20000006844F699
:1017A000D351C1F26201A0FB0101480A019000BFC0
:1017B00000BF0198411E002801913FF42FAF00BFE8
:1017C0000198411E002801913FF428AF00BF019805
:1017D000411E002801913FF421AF00BF0198411E36
:1017E00000280191E4D119E700210160FFF73CFADC
:1017F000054600BF306880077FF50DAFFFF734FA6C
:10180000401B02284FF00300F4D920E7306A20F093
:1018100001003062306A20F004003062FFF724FAE1
:10182000054641F2883700BF306A800720D5FFF7B0
:101830001BFA401BB8424FF00300F5D907E700BF81
:10184000306A40F004003062306A40F001003062DB
:10185000FFF70AFA054641F2883700BF306A800771
:1018600006D4FFF701FA401BB842F7D937E000BFB2
:10187000B8F1000F7FF4D5AEF06920F08050F06130
:10188000CFE600BF306820F480303060306820F44C
:1018900080203060FFF7E8F9054600BF306880031C
:1018A0007FF59DAEFFF7E0F9401B64284FF0030081
:1018B000F4D9CCE6306840F480203060306840F4E1
:1018C00080303060FFF7D0F9054600BF30688003F4
:1018D0003FF585AEFFF7C8F9401B6428F6D9032011
:1018E00002B0BDE8F08100BF206AB0F5803F05D1AD
:1018F0007168A26821F40031114371607168626AF5
:1019000021F4741111430843706001203866FFF719
:10191000ABF90446306880013FF598AEFFF7A4F9B3
:10192000001B02284FF00300F4D990E6411E00206E
:10193000B0EB116F1CBF012070474EF21002CEF2C7
:10194000000251604EF62351CEF20001F0230B70DD
:10195000072190601160704710B590F83C20012A73
:101960004FF0020233D080F83D200268D2F804E044
:10197000D2F808C00C682EF07003234340F2FF74C5
:10198000C4F20004A24253600ADCB2F1804F13D0CB
:1019900040F20043C4F200039A420DD011E000BFB0
:1019A00042F60043C4F201039A4205D040F6000318
:1019B000C4F200039A4204D149682CF08003194311
:1019C00091600121002280F83D1080F83C201046F3
:1019D00010BD0000002804BF0120704710B5044668
:1019E00090F83D0028B9002084F83C00204600F023
:1019F00067F8022084F83D00206840F2FF73026817
:101A0000C4F2000342F6004C9842C4F2010C15DC0B
:101A1000B0F1804F1AD040F20041C4F20001884278
:101A200014D0984218DCB0F1804F1DD040F2004134
:101A3000C4F20001884217D01AE000BF604505D00B
:101A400040F60001C4F200018842EAD1A16822F008
:101A500070020A439842E6DD604505D040F6000179
:101A6000C4F20001884203D1216922F440720A4382
:101A7000A36922F08001D4F804E0E26819436045CC
:101A80000160C262C0F828E002D16169CCF8301070
:101A900001214161002084F8461084F83E1084F84A
:101AA0003F1084F8401084F8411084F8421084F804
:101AB000431084F8441084F8451084F83D1010BD9C
:101AC00081B00068B0F1804F02D001B0704700BF14
:101AD00041F21C00C4F20200016841F00101016002
:101AE000006800F001000090009801B0704700000D
:101AF00080B590F83C20012A4FF0020200F0C2802D
:101B000080F83D20D0F800C04FF67772DCF808303E
:101B100023EA0202CCF808200B684F2B28DC1F2B8D
:101B200044DD202B45D0302B43D0402B40F0AC80FF
:101B3000D1F804E0C968DCF82030DCF8202022F07D
:101B40000102CCF82020DCF8182022F0F00242EA52
:101B5000011123F00A0242EA0E02CCF81810CCF868
:101B60002020DCF8081041F0470121F0300180E02E
:101B70006F2B27DDB3F5005F48D0B3F5805F7AD0D7
:101B8000702B40F08180D1E901E3C968DCF80820BE
:101B900043EA0E0322F47F4243EA01211143CCF8C9
:101BA0000810DCF8081041F0770162E00BB1102B4F
:101BB0006AD1DCF8081021F07001194341F00701E7
:101BC00057E000BF502B35D0602B5DD1D1F804E039
:101BD000C968DCF82030DCF8202022F01002CCF8B4
:101BE0002020DCF8182022F4704242EA013123F070
:101BF000A00242EA0E12CCF81810CCF82020DCF833
:101C0000081041F0670121F0100132E0D1E901E351
:101C1000C968DCF8082043EA0E0322F47F4243EA55
:101C200001211143CCF80810DCF8081041F4804180
:101C30001FE000BFD1F804E0C968DCF82030DCF810
:101C4000202022F00102CCF82020DCF8182022F01D
:101C5000F00242EA011123F00A0242EA0E02CCF835
:101C60001810CCF82020DCF8081041F0570121F0C2
:101C70002001CCF808100022012180F83D1000213D
:101C800080F83C10104680BD0122F5E780B586B093
:101C900000680021B0F1804F049101D006B080BDF2
:101CA00041F21800C4F20200016841F00401016031
:101CB000006802A900F00400019001980220CDE91B
:101CC0000200059040F60000C4F20100FEF7B2FEEB
:101CD00006B080BD2DE9F04390F83C30012B04BFE5
:101CE0000220BDE8F0834FEAB202032A3CD8DFE8C5
:101CF00002F0034381BD00BF036842F600461D6A3F
:101D00001A6AC4F2010622F001021A621A465C68DD
:101D100052F818CFB3428E68D1F800E025F00205E2
:101D200045EA06050CD1CE68D1E9057824F4407463
:101D300025F00C0526F004063C43354344EA08042C
:101D40002CF0730747EA0E075C609F614F680969D2
:101D50005F631D629F6947F008079F619F6927F0D5
:101D600004079F61B2E000BF0121002280F83C20FF
:101D70000846BDE8F08300BF036842F600461D6ACE
:101D80001A6AC4F2010622F010021A621A46D3F847
:101D900004C052F8184FB3428E68D1F800E025F025
:101DA000200545EA061510D1CE68D1E9058725F052
:101DB000C0096FF0400505EA06152CF4406647EAB5
:101DC000080745EA090546EA870C24F4E64444EA94
:101DD0000E27C3F804C09F614F6809699F631D62A5
:101DE0009F6947F400679F619F6927F480679F613F
:101DF0006BE000BF036842F600461D6A1A6AC4F22F
:101E0000010622F480721A621A46D3F804C052F80E
:101E10001CEFB3428E680C6825F4007545EA062570
:101E200011D1CE68D1E9058725F44069360240F228
:101E3000FF4526EA05052CF4405647EA080745EA1F
:101E4000090546EA071C2EF073072743C3F804C0B0
:101E5000DF614F680969DF631D62DF6947F00807CA
:101E6000DF61DF6927F00407DF612FE0036842F6D6
:101E70000047D3F820C01A6AC4F2010722F4805246
:101E80001A621A465C6852F81C5FD1F800E08E684E
:101E9000BB4204D14F6924F4804444EA87142CF4F3
:101EA000005747EA063725F4E64646EA0E265C6008
:101EB000DE614E6809691E641F62DF6947F40067CE
:101EC000DF61DF6927F48067DF6109021368194366
:101ED00011600021002280F83C200846BDE8F08314
:101EE000002804BF0120704710B5044690F83D005B
:101EF00028B9002084F83C00204600F067F8022052
:101F000084F83D00206840F2FF730268C4F20003C9
:101F100042F6004C9842C4F2010C15DCB0F1804F3F
:101F20001AD040F20041C4F20001884214D0984215
:101F300018DCB0F1804F1DD040F20041C4F2000126
:101F4000884217D01AE000BF604505D040F6000176
:101F5000C4F200018842EAD1A16822F070020A436B
:101F60009842E6DD604505D040F60001C4F200016C
:101F7000884203D1216922F440720A43A36922F006
:101F80008001D4F804E0E268194360450160C26250
:101F9000C0F828E002D16169CCF83010012141611C
:101FA000002084F8461084F83E1084F83F1084F82E
:101FB000401084F8411084F8421084F8431084F8EB
:101FC000441084F8451084F83D1010BD704700009F
:101FD00041B1082910D0042914BF00F1410200F1D9
:101FE0003F020BE090F83E20012A1CBF0120704701
:101FF000022280F83E2013E000F140021278012A0C
:102000001CBF012070470222082907D0042914BFF1
:1020100080F8412080F83F2002E000BF80F8402097
:10202000006801F01F010122036A8A4023EA0201CD
:102030000162036A42F64441C4F201011A43A1F16C
:102040004403984202620FD040F2FF71C4F20001D3
:10205000884213DCB0F1804F1CD040F20041C4F242
:102060000001884216D01CE00A6842F400420A606F
:1020700040F2FF71C4F200018842EBDD42F60041FC
:10208000C4F20101884205D040F60001C4F200010B
:10209000884206D1816801F00701062904BF0020AB
:1020A0007047016841F001010160002070470000A5
:1020B00010B582B041F204040020CEF2000400F01A
:1020C00079FC102000F076FC40F21800C2F200000B
:1020D00000684DF68361C4F21B31A0FB0101890C3D
:1020E0004FF4FA62206851432268121A0192019A51
:1020F0008A4211D22268121A0192019A8A420BD2A4
:102100002268121A0192019A8A4205D22268121A92
:102110000192019A8A42E7D302B010BDB0B50C46D5
:10212000302101EAC0014031C501084600F042FCFF
:10213000E8B200F03FFC2078050140F0010000F01B
:10214000F10000F037FC681CC0B200F033FC60788E
:10215000050140F0010000F0F10000F02BFC681CCC
:10216000C0B200F027FCA078050140F0010000F0AB
:10217000F10000F01FFC681CC0B200F01BFCE0780E
:10218000050140F0010000F0F10000F013FC681CB4
:10219000C0B200F00FFC2079050140F0010000F012
:1021A000F10000F007FC681CC0B200F003FC60798D
:1021B000050140F0010000F0F10000F0FBFB681C9D
:1021C000C0B200F0F7FBA079050140F0010000F07B
:1021D000F10000F0EFFB681CC0B200F0EBFBE0790F
:1021E000040140F0010000F0F10000F0E3FB601C8E
:1021F000C0B2BDE8B04000F0DDBB00002DE9F04109
:1022000082B040F2C004C2F2000408212070617064
:10221000042101284EF6FC5088BF0821A170CEF29F
:102220000000016841F2040521F08071016001683D
:10223000CEF2000541F08071016055F8040C20F0E9
:10224000010045F8040C55F8040C40F0010045F875
:10225000040C00202860322000BF00BF00BFFEF742
:10226000D5FB60780A278DF8040040F2C800C2F25E
:10227000000001AA7E2101230097FEF7B7FD4FF46D
:102280007A70FEF7C3FB302000F094FB40F2180890
:10229000C2F20008D8F800004DF68367C4F21B377D
:1022A000A0FB0701890C41F294122868514300BF3A
:1022B0002A68121A0192019A8A4211D22A68121AC5
:1022C0000192019A8A420BD22A68121A0192019A4B
:1022D0008A4205D22A68121A0192019A8A42E7D3E9
:1022E000302000F067FBD8F8000041F29412A0FB08
:1022F0000701890C286851432A68121A0192019A31
:102300008A4211D22A68121A0192019A8A420BD289
:102310002A68121A0192019A8A4205D22A68121A70
:102320000192019A8A42E7D3302000F043FBD8F8AB
:10233000000041F29412A0FB0701890C2868514368
:102340002A68121A0192019A8A4211D22A68121A34
:102350000192019A8A420BD22A68121A0192019ABA
:102360008A4205D22A68121A0192019A8A42E7D358
:10237000202000F01FFBD8F800006422A0FB07011A
:10238000890C2868514300BF2A68121A0192019AE9
:102390008A4211D22A68121A0192019A8A420BD2F9
:1023A0002A68121A0192019A8A4205D22A68121AE0
:1023B0000192019A8A42E7D3A07840F020010601F9
:1023C00001F0F00000F0F6FAF0B200F0F3FA0420A9
:1023D000E070002000F0EEFAC02000F0EBFA0020E0
:1023E00000F0E8FA102000F0E5FAD8F800004FF409
:1023F000FA62A0FB0701890C286851432A68121A67
:102400000192019A8A4211D22A68121A0192019A03
:102410008A420BD22A68121A0192019A8A4205D284
:102420002A68121A0192019A8A42E7D30220207187
:10243000002000F0BFFA602000F0BCFAD8F80000DD
:1024400041F29412A0FB0701890C2868514300BF98
:102450002A68121A0192019A8A4211D22A68121A23
:102460000192019A8A420BD22A68121A0192019AA9
:102470008A4205D22A68121A0192019A8A42E7D347
:1024800040F20004C2F2000400202146FFF746FE9D
:1024900004F108010120FFF741FE002000F08AFA54
:1024A000202000F087FAD8F800004FF4FA62A0FB71
:1024B0000701890C286851432A68121A0192019A6F
:1024C0008A4211D22A68121A0192019A8A420BD2C8
:1024D0002A68121A0192019A8A4205D22A68121AAF
:1024E0000192019A8A42E7D302B0BDE8F081000070
:1024F000B0B50178002908BFB0BD441E41F001000D
:1025000000F0F1000D0100F055FA681CC0B200F0B7
:1025100051FAA17801340029F0D1B0BD10B540F2D4
:10252000C002C2F2000212788A4298BF511EC9B29C
:1025300007A212F82110084440F08001040101F0C4
:10254000F00000F037FAE0B2BDE8104000F032BA17
:1025500000000000400000001400000054000000D3
:10256000FEE7000070B50368044653F8140F4007F7
:1025700011D40E46481C29D086BB00BF1868400500
:1025800027D4FEF771FB236853F8140F400739D5A1
:1025900018684007F2D5002070BD00BF18684007DA
:1025A000F9D41868400514D418684007F3D41868A3
:1025B00040050ED418684007EDD41868400508D4CB
:1025C000186840074FF0000048BF70BD186840050C
:1025D000E4D56FF480601860042014E0154603E031
:1025E00053F8140F4007D6D418684005F1D4FEF70D
:1025F0003BFB401B2368B042F2D958694007EFD437
:10260000202000E0202000212022216384F83D20AA
:1026100084F83E10226C10432064012084F83C10A2
:1026200070BD00002DE9F041054600681E461446C5
:1026300001F47F0201338FB242D0DDF81880B2F589
:10264000803F40F0878040693840C01BB0FA80F07E
:102650004009A04240F0C8804EB924E040693840AB
:10266000C01BB0FA80F04009A04240F0BD80FEF7E8
:10267000FBFAA0EB08012868B142EFD94169394063
:10268000C91BB1FA81F14909A142E7D19BE000BF22
:1026900040693840C01BB0FA80F04009A0424FF0BA
:1026A000000040F0A680FEF7DFFA28684169394053
:1026B000C91BB1FA81F14909A142E9D183E000BF08
:1026C000B2F5803F24D100BF41693940C91BB1FA3E
:1026D00081F14909A14240F0878041693940C91B15
:1026E000B1FA81F14909A14240F07E804169394047
:1026F000C91BB1FA81F14909A14275D1416939403B
:10270000C91BB1FA81F14909A142DDD06CE000BFDB
:1027100081693940C91BB1FA81F14909A14263D1EC
:1027200081693940C91BB1FA81F14909A1425BD1E4
:1027300081693940C91BB1FA81F14909A14253D1DC
:1027400081693940C91BB1FA81F14909A142DFD041
:102750004AE000BF80693840C01BB0FA80F04009F1
:10276000A04241D146B923E080693840C01BB0FA8D
:1027700080F04009A0423BD1FEF776FAA0EB0801B9
:102780002868B142F0D981693940C91BB1FA81F199
:102790004909A142E8D116E080693840C01BB0FA6F
:1027A00080F04009A0424FF0000018BFBDE8F08162
:1027B000FEF75AFA286881693940C91BB1FA81F1DC
:1027C0004909A142E8D100202021286385F83D1065
:1027D00085F83E00296C41F02001296485F83C0011
:1027E0000120BDE8F08100BF0020BDE8F08100BFFE
:1027F0000020BDE8F0810000F0B581B0044600681B
:102800001D4643698FB203EA0701B94202D1002095
:1028100001B0F0BD41691646013201F4806125D056
:10282000002940D1CEB100BFFEF71EFA411B20683F
:10283000B14203D941693940B9424BD1416939406C
:10284000B942E4D041694905EED52CE041693940EF
:10285000B942DCD04169490525D4FEF705FA206864
:1028600041693940B942F1D0202024E0D9B9416909
:102870003940B942CBD04169490514D44169394046
:10288000B942C4D0416949050DD441693940B942C2
:10289000BDD04169490506D441693940B942B6D035
:1028A00041694905E3D5016841F4007101606FF4A5
:1028B00080614161042000212022216384F83D20B1
:1028C00084F83E10226C1043206484F83C100120F0
:1028D00001B0F0BD2020EEE770B50368044653F860
:1028E000140F000611D40E46481C29D086BB00BF29
:1028F0001868400527D4FEF7B7F9236853F8140F7A
:10290000000639D518680006F2D5002070BD00BF5A
:1029100018680006F9D41868400514D41868000631
:10292000F3D4186840050ED418680006EDD4186872
:10293000400508D4186800064FF0000048BF70BD7D
:1029400018684005E4D56FF480601860042014E036
:10295000154603E053F8140F0006D6D41868400556
:10296000F1D4FEF781F9401B2368B042F2D95869CF
:102970000006EFD4202000E0202000212022216347
:1029800084F83D2084F83E10226C1043206401201E
:1029900084F83C1070BD0000FEE70000FEE7000078
:1029A0007047000070470000FEF73CBB7047000016
:1029B000FEE700002DE9F04385B040F2C009C2F205
:1029C0000009044699F8010040F2C8052043C2F20C
:1029D000000541F204068DF806000A270DF10602F3
:1029E00028467E210123CEF200060097FEF7FEF96D
:1029F00099F801000DF10702204340F004008DF822
:102A0000070028467E2101230097FEF7EFF940F2E8
:102A10001808C2F20008D8F800004DF68365C4F229
:102A20001B35A0FB0501880C00EB80013068890094
:102A30003268121A0292029A8A4211D23268121A2B
:102A40000292029A8A420BD23268121A0292029AB7
:102A50008A4205D23268121A0292029A8A42E7D357
:102A600099F8010004F0FB0108438DF80F0040F2D3
:102A7000C8000A27C2F200000DF10F027E210123D7
:102A80000097FEF7B3F9D8F80000A0FB0501880C09
:102A900000EB8001306889003268121A0492049AAF
:102AA0008A4211D23268121A0492049A8A420BD2D4
:102AB0003268121A0492049A8A4205D23268121AB3
:102AC0000492049A8A42E7D305B0BDE8F08300007F
:102AD00094B0FEF7B5FA00240120CDE90F44CDE90A
:102AE0000D440A900E904FF4E0104FF4803102250F
:102AF00013900AA80394CDE90144CDE90B14CDE964
:102B00001151FEF739FD28B1EFF3108072B600BF06
:102B1000FEE700BF0F20CDE905054FF48060CDE949
:102B2000080405A802210794FEF71EFC20B1EFF36C
:102B3000108072B6FEE700BF4FF4004002260290FC
:102B400068460096FEF78AFB20B1EFF3108072B65C
:102B5000FEE700BF41F21800C4F20200016840F62F
:102B6000004841F0200101600168C4F2010801F051
:102B700020010A910A990168002241F004010160D4
:102B80000168032401F004010A910A9901680025F3
:102B900041F0080101600068032100F008000A907C
:102BA0000A984046FEF75AF80A9401240BA870C010
:102BB0000AAE40463146FDF73DFF4FF47040CDE987
:102BC0000A05404631460C95FDF734FF4FF4E060AE
:102BD000A8F58069CDE90A05484631460C95FDF710
:102BE00029FF40F28007C2F2000708F5C0513846BD
:102BF00040F8101F042101734FF460210575C16175
:102C0000C0E901550461FDF747FC28B1EFF31080DE
:102C100072B600BFFEE700BF05200AA907F1100643
:102C200031C10AA93046FDF76DFB28B1EFF31080E2
:102C300072B600BFFEE700BF40F2C800A8F53841F9
:102C4000C2F2000048F2A06200244FF48043C0F2B8
:102C5000010280E81600C0E90343C0E90544C0E969
:102C60000744FEF707F828B1EFF3108072B600BFF3
:102C7000FEE700BF40F21C10C2F200004FF080419E
:102C800040F271230894CDE90644CDE90044CDE932
:102C90000F44CDE90D447F2280E81600C0E90334DB
:102CA0008461FEF797FE28B1EFF3108072B600BF83
:102CB000FEE700BF4FF48050059040F21C10C2F2B6
:102CC000000005A9FEF714FF20B1EFF3108072B6E3
:102CD000FEE700BF40F21C10C2F20000FFF700F94F
:102CE00020B1EFF3108072B6FEE700BF40F21C1077
:102CF000C2F200006946FEF72FFE28B1EFF3108004
:102D000072B600BFFEE700BF60200A900020CDE948
:102D10000B000E9040F21C10C2F200000AA904221F
:102D2000FEF7D8FF20B1EFF3108072B6FEE700BFC8
:102D300040F21C14C2F200042046FEF7A7FF022056
:102D4000FFF75CFA4FF4FA60FDF760FE40460121A0
:102D50000022FDF783FF404602210022FDF77EFF9F
:102D60004FF4FA70FDF752FE20460421FFF730F9C8
:102D700040F2A46A0FF2C4350FF2C8340FF2D43B0C
:102D800011E000BF40F21C10C2F200000068FA21FE
:102D90008163404601210022FDF760FF4046022189
:102DA0000122FDF75BFF40464FF48051FDF750FFD5
:102DB000388040464FF40051FDF74AFF7880404686
:102DC0004FF48041FDF744FFB88040464FF4004186
:102DD000FDF73EFFF88048464FF48071FDF738FF5D
:102DE000388148464FF40071FDF732FF7881304654
:102DF000FDF766FD30464FF0FF31FDF72DFC304604
:102E0000FDF746FBB8813046FDF7C0FD4FF4FA7080
:102E1000FDF7FCFDB889504526D2F888012873D10A
:102E2000404601210022FDF719FF40460221002201
:102E3000FDF714FFFFF73CF900200021FFF76EFBC0
:102E4000DBA0FFF755FB4FF4FA60FDF7DFFD388894
:102E5000002800F0C380FFF72BF900200021FFF7C6
:102E60005DFBD5A03FE000BFFFF722F9072000215E
:102E7000FFF754FBAFA0FFF73BFB07200121FFF753
:102E80004DFB2846FFF734FB40F6B830FDF7BEFD9A
:102E9000FFF70EF901200021FFF740FB2046FFF766
:102EA00027FB03200121FFF739FB5846FFF720FBE2
:102EB0004FF4FA60FDF7AAFD40464FF40041FDF7DC
:102EC000C7FE0128F8807FF45DAF4FF4FA60FDF78C
:102ED0009DFDFFF7EDF800200021FFF71FFB43F2F7
:102EE0000220C0F60000FFF703FB4FF4FA60FDF785
:102EF0008DFD404601210022FDF7B0FE4046022133
:102F00000022FDF7ABFE4EE73889012822D140466A
:102F100001210022FDF7A2FE404602210022FDF71A
:102F20009DFEFFF7C5F800200021FFF7F7FA96A0F5
:102F3000FFF7DEFA4FF4FA60FDF768FD38880028E5
:102F40006ED0FFF7B5F800200021FFF7E7FA90A058
:102F500025E000BF788901287FF425AF4046012194
:102F60000022FDF77BFE404602210022FDF776FE9F
:102F7000FFF79EF800200021FFF7D0FA78A0FFF7B6
:102F8000B7FA4FF4FA60FDF741FD3888002871D098
:102F9000FFF78EF800200021FFF7C0FA72A0FFF7BC
:102FA000A7FA4FF4FA60FDF731FD40464FF40041B7
:102FB000FDF74EFE0128F8807FF4E4AE4FF4FA608E
:102FC000FDF724FDFFF774F800200021FFF7A6FAB3
:102FD00043F20220C0F60000A5E000BF788878B375
:102FE000FFF766F800200021FFF798FA76A0FFF7B8
:102FF0007FFA48464FF48071FDF72AFE0128388198
:103000007AD14FF4FA60FDF701FDFFF751F8002087
:103010000021FFF783FA43F20720C0F6000082E0A8
:103020007888002840D04FF4FA70FDF7EFFCFFF7E6
:103030003FF800200021FFF771FA57A073E000BFAE
:10304000B88800283FF4AFAEFFF732F80020002127
:10305000FFF764FA5EA0FFF74BFA4FF4FA60FDF752
:10306000D5FC48464FF40071FDF7F2FD0128788148
:1030700037D041E0788800284AD0FFF719F80020BF
:103080000021FFF74BFA3AA0FFF732FA4FF4FA604B
:10309000FDF7BCFC48464FF48071FDF7D9FD0128CF
:1030A00038817FF46FAEACE7B88800283FF47BAE80
:1030B000FEF7FEFF00200021FFF730FA3AA0FFF7ED
:1030C00017FA4FF4FA60FDF7A1FC48464FF400717F
:1030D000FDF7BEFD012878810ED14FF4FA60FDF7AF
:1030E00095FCFEF7E5FF00200021FFF717FA43F2F9
:1030F0000C20C0F6000016E040F21C10C2F20000E6
:103100000068FA218163404601210122F4E600BFF4
:10311000B88800283FF447AEFEF7CAFF0020002120
:10312000FFF7FCF914A0FFF7E3F94FF4FA60FDF79D
:103130006DFC38E64143494C0000000044555255AF
:103140004D0000005441484C495945204B415449D9
:103150004E410000474944494C49594F5200000034
:10316000322E206B6174000032202D3E2030000092
:1031700032202D3E20310000322E206B61747461AC
:1031800073696E697A000000312E206B6174000053
:1031900031202D3E20300000312E206B617474618F
:1031A00073696E697A00000031202D3E20320000E4
:1031B000302E206B61740000302E206B61747461BE
:1031C00073696E697A00000030202D3E20310000C6
:1031D00030202D3E203200000000000000000000E2
:1031E00001020304060708090000000001020304AD
:1031F000010202030405060708090A0B0C0D0E0F55
:10320000101030202D7C0031202D7C0032202D7CB0
:1032100000000000383200080000002020000000FC
:10322000280100085832000820000020480700004C
:10323000440100080000000000191B060C1B1300CD
:103240001818060908090600010000001000000017
:083250000024F400000000005E
:04000005080000ED02
:00000001FF
